{"abi":[{"type":"function","name":"DEFAULT_ADMIN_ROLE","inputs":[],"outputs":[{"name":"","type":"bytes32","internalType":"bytes32"}],"stateMutability":"view"},{"type":"function","name":"activeGames","inputs":[{"name":"","type":"bytes32","internalType":"bytes32"}],"outputs":[{"name":"nextRoundEnd","type":"uint256","internalType":"uint256"}],"stateMutability":"view"},{"type":"function","name":"createGame","inputs":[{"name":"name","type":"string","internalType":"string"},{"name":"addresses","type":"address[]","internalType":"address[]"}],"outputs":[],"stateMutability":"nonpayable"},{"type":"function","name":"getRoleAdmin","inputs":[{"name":"role","type":"bytes32","internalType":"bytes32"}],"outputs":[{"name":"","type":"bytes32","internalType":"bytes32"}],"stateMutability":"view"},{"type":"function","name":"grantRole","inputs":[{"name":"role","type":"bytes32","internalType":"bytes32"},{"name":"account","type":"address","internalType":"address"}],"outputs":[],"stateMutability":"nonpayable"},{"type":"function","name":"hasRole","inputs":[{"name":"role","type":"bytes32","internalType":"bytes32"},{"name":"account","type":"address","internalType":"address"}],"outputs":[{"name":"","type":"bool","internalType":"bool"}],"stateMutability":"view"},{"type":"function","name":"removePlayer","inputs":[{"name":"gameId","type":"bytes32","internalType":"bytes32"},{"name":"sigs","type":"bytes[]","internalType":"bytes[]"},{"name":"addresses","type":"address[]","internalType":"address[]"},{"name":"votes","type":"address[]","internalType":"address[]"}],"outputs":[],"stateMutability":"nonpayable"},{"type":"function","name":"renounceRole","inputs":[{"name":"role","type":"bytes32","internalType":"bytes32"},{"name":"callerConfirmation","type":"address","internalType":"address"}],"outputs":[],"stateMutability":"nonpayable"},{"type":"function","name":"revokeRole","inputs":[{"name":"role","type":"bytes32","internalType":"bytes32"},{"name":"account","type":"address","internalType":"address"}],"outputs":[],"stateMutability":"nonpayable"},{"type":"function","name":"startRound","inputs":[{"name":"gameId","type":"bytes32","internalType":"bytes32"},{"name":"endTime","type":"uint256","internalType":"uint256"}],"outputs":[],"stateMutability":"nonpayable"},{"type":"function","name":"supportsInterface","inputs":[{"name":"interfaceId","type":"bytes4","internalType":"bytes4"}],"outputs":[{"name":"","type":"bool","internalType":"bool"}],"stateMutability":"view"},{"type":"function","name":"voteInRound","inputs":[{"name":"gameId","type":"bytes32","internalType":"bytes32"},{"name":"commitment","type":"bytes32","internalType":"bytes32"}],"outputs":[],"stateMutability":"nonpayable"},{"type":"event","name":"GameCreated","inputs":[{"name":"id","type":"bytes32","indexed":true,"internalType":"bytes32"},{"name":"num_addresses","type":"uint8","indexed":false,"internalType":"uint8"}],"anonymous":false},{"type":"event","name":"PlayerRemoved","inputs":[{"name":"gameId","type":"bytes32","indexed":true,"internalType":"bytes32"},{"name":"removedPlayer","type":"address","indexed":false,"internalType":"address"}],"anonymous":false},{"type":"event","name":"RoleAdminChanged","inputs":[{"name":"role","type":"bytes32","indexed":true,"internalType":"bytes32"},{"name":"previousAdminRole","type":"bytes32","indexed":true,"internalType":"bytes32"},{"name":"newAdminRole","type":"bytes32","indexed":true,"internalType":"bytes32"}],"anonymous":false},{"type":"event","name":"RoleGranted","inputs":[{"name":"role","type":"bytes32","indexed":true,"internalType":"bytes32"},{"name":"account","type":"address","indexed":true,"internalType":"address"},{"name":"sender","type":"address","indexed":true,"internalType":"address"}],"anonymous":false},{"type":"event","name":"RoleRevoked","inputs":[{"name":"role","type":"bytes32","indexed":true,"internalType":"bytes32"},{"name":"account","type":"address","indexed":true,"internalType":"address"},{"name":"sender","type":"address","indexed":true,"internalType":"address"}],"anonymous":false},{"type":"event","name":"VoteCast","inputs":[{"name":"gameId","type":"bytes32","indexed":true,"internalType":"bytes32"},{"name":"caster","type":"address","indexed":false,"internalType":"address"},{"name":"commitment","type":"bytes32","indexed":false,"internalType":"bytes32"}],"anonymous":false},{"type":"error","name":"AccessControlBadConfirmation","inputs":[]},{"type":"error","name":"AccessControlUnauthorizedAccount","inputs":[{"name":"account","type":"address","internalType":"address"},{"name":"neededRole","type":"bytes32","internalType":"bytes32"}]},{"type":"error","name":"ECDSAInvalidSignature","inputs":[]},{"type":"error","name":"ECDSAInvalidSignatureLength","inputs":[{"name":"length","type":"uint256","internalType":"uint256"}]},{"type":"error","name":"ECDSAInvalidSignatureS","inputs":[{"name":"s","type":"bytes32","internalType":"bytes32"}]}],"bytecode":{"object":"0x608060405234801561001057600080fd5b506114ee806100206000396000f3fe608060405234801561001057600080fd5b50600436106100b45760003560e01c80633accbfda116100715780633accbfda1461016057806377adcb7e1461018357806391d1485414610196578063a217fddf146101a9578063aca11313146101b1578063d547741f146101c457600080fd5b806301ffc9a7146100b957806315c28011146100e1578063232dcdbb146100f6578063248a9ca3146101095780632f2ff15d1461013a57806336568abe1461014d575b600080fd5b6100cc6100c73660046110a8565b6101d7565b60405190151581526020015b60405180910390f35b6100f46100ef366004611125565b61020e565b005b6100f46101043660046111c9565b61068e565b61012c6101173660046111eb565b60009081526020819052604090206001015490565b6040519081526020016100d8565b6100f4610148366004611220565b610810565b6100f461015b366004611220565b61083b565b61012c61016e3660046111eb565b60016020526000908152604090206004015481565b6100f46101913660046111c9565b610873565b6100cc6101a4366004611220565b6108f2565b61012c600081565b6100f46101bf366004611262565b61091b565b6100f46101d2366004611220565b610a4a565b60006001600160e01b03198216637965db0b60e01b148061020857506301ffc9a760e01b6001600160e01b03198316145b92915050565b8661021881610a6f565b858414801561023857506000888152600160208190526040909120015486145b801561024357508582145b61028a5760405162461bcd60e51b8152602060048201526013602482015272098cadccee8d0e640c8dedc4ee840dac2e8c6d606b1b60448201526064015b60405180910390fd5b60008383600081811061029f5761029f611380565b90506020020160208101906102b49190611396565b90506000805b8881101561056d5761033c8a8a838181106102d7576102d7611380565b90506020028101906102e991906113b1565b8a8a858181106102fb576102fb611380565b90506020020160208101906103109190611396565b89898681811061032257610322611380565b90506020020160208101906103379190611396565b610a7c565b61037c5760405162461bcd60e51b8152602060048201526011602482015270496e76616c6964207369676e617475726560781b6044820152606401610281565b60018060008d815260200190815260200160002060030160008888858181106103a7576103a7611380565b90506020020160208101906103bc9190611396565b6001600160a01b031681526020810191909152604001600090812080549091906103ea90849060ff166113f8565b92506101000a81548160ff021916908360ff1602179055508160ff16600160008d8152602001908152602001600020600301600088888581811061043057610430611380565b90506020020160208101906104459190611396565b6001600160a01b0316815260208101919091526040016000205460ff1611156104ed5785858281811061047a5761047a611380565b905060200201602081019061048f9190611396565b60008c81526001602052604081209194506003909101908787848181106104b8576104b8611380565b90506020020160208101906104cd9190611396565b6001600160a01b0316815260208101919091526040016000205460ff1691505b60018060008d815260200190815260200160002060020160008a8a8581811061051857610518611380565b905060200201602081019061052d9190611396565b6001600160a01b031681526020810191909152604001600020805460ff191660018360038111156105605761056061141f565b02179055506001016102ba565b5060005b848110156105e55760008b81526001602052604081206003018188888581811061059d5761059d611380565b90506020020160208101906105b29190611396565b6001600160a01b031681526020810191909152604001600020805460ff191660ff92909216919091179055600101610571565b5060408051600080825260208083018085528e835260019182905293909120915161061593929091019190610ff3565b5060008a8152600160209081526040808320600481018490556001600160a01b0386168085526002909101835292819020805460ff19166003179055519182528b917f91a7676b1ba53f7aa39a5088a416be6a3283f8072619b7615922bd0eb142a878910160405180910390a250505050505050505050565b6001600083815260016020908152604080832033845260020190915290205460ff1660038111156106c1576106c161141f565b146107345760405162461bcd60e51b815260206004820152603a60248201527f416464726573732069732065697468657220696e656c696769626c652c20656c60448201527f696d696e617465642c206f7220616c726561647920766f7465640000000000006064820152608401610281565b60008281526001602052604090206004015442106107945760405162461bcd60e51b815260206004820152601b60248201527f43616e6e6f7420766f7465207061737420726f756e6420656e642100000000006044820152606401610281565b6000828152600160208181526040808420808401805494850181558552828520909301859055338085526002938401835293819020805460ff19169093179092558151928352820183905283917f779ee41b2705bb84b68826be94f592204565aed7b9a6d8b5a0a8e1a03f551cce910160405180910390a25050565b60008281526020819052604090206001015461082b81610a6f565b6108358383610b14565b50505050565b6001600160a01b03811633146108645760405163334bd91960e11b815260040160405180910390fd5b61086e8282610ba6565b505050565b8161087d81610a6f565b600083815260016020526040902060040154156108dc5760405162461bcd60e51b815260206004820152601960248201527f526f756e6420616c726561647920696e2070726f6772657373000000000000006044820152606401610281565b5060009182526001602052604090912060040155565b6000918252602082815260408084206001600160a01b0393909316845291905290205460ff1690565b60008383604051602001610930929190611435565b60408051601f1981840301815291815281516020928301206000818152600184529190912084519193506109699290919085019061103e565b5060008181526001602052604081206004018190555b82518110156109fd57600180600084815260200190815260200160002060020160008584815181106109b3576109b3611380565b6020908102919091018101516001600160a01b03168252810191909152604001600020805460ff191660018360038111156109f0576109f061141f565b021790555060010161097f565b50610a088133610b14565b50815160405160ff909116815281907fb149317e20693c95d8427659b11bf8c421412529fb37cbf7c998c62668118e959060200160405180910390a250505050565b600082815260208190526040902060010154610a6581610a6f565b6108358383610ba6565b610a798133610c11565b50565b6040516bffffffffffffffffffffffff19606083901b1660208201526000906001600160a01b03841690610b0190610ac590603401604051602081830303815290604052610c4e565b87878080601f016020809104026020016040519081016040528093929190818152602001838380828437600092019190915250610c8992505050565b6001600160a01b03161495945050505050565b6000610b2083836108f2565b610b9e576000838152602081815260408083206001600160a01b03861684529091529020805460ff19166001179055610b563390565b6001600160a01b0316826001600160a01b0316847f2f8788117e7eff1d82e926ec794901d17c78024a50270940304540a733656f0d60405160405180910390a4506001610208565b506000610208565b6000610bb283836108f2565b15610b9e576000838152602081815260408083206001600160a01b0386168085529252808320805460ff1916905551339286917ff6391f5c32d9c69d2a47ea670b442974b53935d1edc7fd64eb21e047a839171b9190a4506001610208565b610c1b82826108f2565b610c4a5760405163e2517d3f60e01b81526001600160a01b038216600482015260248101839052604401610281565b5050565b6000610c5a8251610cb3565b82604051602001610c6c929190611475565b604051602081830303815290604052805190602001209050919050565b600080600080610c998686610d46565b925092509250610ca98282610d93565b5090949350505050565b60606000610cc083610e4c565b600101905060008167ffffffffffffffff811115610ce057610ce061124c565b6040519080825280601f01601f191660200182016040528015610d0a576020820181803683370190505b5090508181016020015b600019016f181899199a1a9b1b9c1cb0b131b232b360811b600a86061a8153600a8504945084610d1457509392505050565b60008060008351604103610d805760208401516040850151606086015160001a610d7288828585610f24565b955095509550505050610d8c565b50508151600091506002905b9250925092565b6000826003811115610da757610da761141f565b03610db0575050565b6001826003811115610dc457610dc461141f565b03610de25760405163f645eedf60e01b815260040160405180910390fd5b6002826003811115610df657610df661141f565b03610e175760405163fce698f760e01b815260048101829052602401610281565b6003826003811115610e2b57610e2b61141f565b03610c4a576040516335e2f38360e21b815260048101829052602401610281565b60008072184f03e93ff9f4daa797ed6e38ed64bf6a1f0160401b8310610e8b5772184f03e93ff9f4daa797ed6e38ed64bf6a1f0160401b830492506040015b6d04ee2d6d415b85acef81000000008310610eb7576d04ee2d6d415b85acef8100000000830492506020015b662386f26fc100008310610ed557662386f26fc10000830492506010015b6305f5e1008310610eed576305f5e100830492506008015b6127108310610f0157612710830492506004015b60648310610f13576064830492506002015b600a83106102085760010192915050565b600080807f7fffffffffffffffffffffffffffffff5d576e7357a4501ddfe92f46681b20a0841115610f5f5750600091506003905082610fe9565b604080516000808252602082018084528a905260ff891692820192909252606081018790526080810186905260019060a0016020604051602081039080840390855afa158015610fb3573d6000803e3d6000fd5b5050604051601f1901519150506001600160a01b038116610fdf57506000925060019150829050610fe9565b9250600091508190505b9450945094915050565b82805482825590600052602060002090810192821561102e579160200282015b8281111561102e578251825591602001919060010190611013565b5061103a929150611093565b5090565b82805482825590600052602060002090810192821561102e579160200282015b8281111561102e57825182546001600160a01b0319166001600160a01b0390911617825560209092019160019091019061105e565b5b8082111561103a5760008155600101611094565b6000602082840312156110ba57600080fd5b81356001600160e01b0319811681146110d257600080fd5b9392505050565b60008083601f8401126110eb57600080fd5b50813567ffffffffffffffff81111561110357600080fd5b6020830191508360208260051b850101111561111e57600080fd5b9250929050565b60008060008060008060006080888a03121561114057600080fd5b87359650602088013567ffffffffffffffff8082111561115f57600080fd5b61116b8b838c016110d9565b909850965060408a013591508082111561118457600080fd5b6111908b838c016110d9565b909650945060608a01359150808211156111a957600080fd5b506111b68a828b016110d9565b989b979a50959850939692959293505050565b600080604083850312156111dc57600080fd5b50508035926020909101359150565b6000602082840312156111fd57600080fd5b5035919050565b80356001600160a01b038116811461121b57600080fd5b919050565b6000806040838503121561123357600080fd5b8235915061124360208401611204565b90509250929050565b634e487b7160e01b600052604160045260246000fd5b60008060006040848603121561127757600080fd5b833567ffffffffffffffff8082111561128f57600080fd5b818601915086601f8301126112a357600080fd5b8135818111156112b257600080fd5b602088818386010111156112c557600080fd5b8084019650819550808801359350828411156112e057600080fd5b838801935088601f8501126112f457600080fd5b83359150828211156113085761130861124c565b8160051b604051601f19603f8301168101818110868211171561132d5761132d61124c565b60405292835281830193508481018201928a84111561134b57600080fd5b948201945b838610156113705761136186611204565b85529482019493820193611350565b8096505050505050509250925092565b634e487b7160e01b600052603260045260246000fd5b6000602082840312156113a857600080fd5b6110d282611204565b6000808335601e198436030181126113c857600080fd5b83018035915067ffffffffffffffff8211156113e357600080fd5b60200191503681900382131561111e57600080fd5b60ff818116838216019081111561020857634e487b7160e01b600052601160045260246000fd5b634e487b7160e01b600052602160045260246000fd5b8183823760009101908152919050565b6000815160005b81811015611466576020818501810151868301520161144c565b50600093019283525090919050565b7f19457468657265756d205369676e6564204d6573736167653a0a000000000000815260006114b06114aa601a840186611445565b84611445565b94935050505056fea2646970667358221220e5dfb556bffd03a935c0eaefa91de598a0d72900089926e115031a050b0fdfd264736f6c63430008180033","linkReferences":{}},"methodIdentifiers":{"DEFAULT_ADMIN_ROLE()":"a217fddf","activeGames(bytes32)":"3accbfda","createGame(string,address[])":"aca11313","getRoleAdmin(bytes32)":"248a9ca3","grantRole(bytes32,address)":"2f2ff15d","hasRole(bytes32,address)":"91d14854","removePlayer(bytes32,bytes[],address[],address[])":"15c28011","renounceRole(bytes32,address)":"36568abe","revokeRole(bytes32,address)":"d547741f","startRound(bytes32,uint256)":"77adcb7e","supportsInterface(bytes4)":"01ffc9a7","voteInRound(bytes32,bytes32)":"232dcdbb"},"id":12}